:020000040800F2
:10000000684A0020BD310008B5150008B715000882
:10001000BB150008BF150008C3150008000000004C
:10002000000000000000000000000000C7150008EC
:10003000C915000800000000CB150008D5310008E4
:10004000D7310008D7310008D7310008D731000870
:10005000D7310008D7310008D7310008D731000860
:10006000D7310008D7310008D7310008D731000850
:10007000D7310008D7310008D7310008D731000840
:10008000D7310008D7310008D7310008D731000830
:10009000D7310008D7310008D7310008D731000820
:1000A000D7310008D7310008D7310008D731000810
:1000B000D7310008D7310008D7310008D731000800
:1000C000D7310008D7310008D7310008D7310008F0
:1000D000D7310008D7310008D7310008D7310008E0
:1000E000D7310008D7310008D7310008D7310008D0
:1000F000D7310008D7310008D7310008D7310008C0
:10010000D7310008D7310008D7310008D7310008AF
:10011000D7310008D7310008D7310008D73100089F
:10012000D7310008D7310008D7310008D73100088F
:1001300000F002F800F05EF80AA090E8000C82449B
:100140008344AAF10107DA4501D100F053F8AFF278
:10015000090EBAE80F0013F0010F18BFFB1A43F0A5
:1001600001031847646E0000846E000010F8013B24
:100170000A4413F0030408BF10F8014B1D1108BF17
:1001800010F8015B641E05D010F8016B641E01F8C5
:10019000016BF9D1002D15D010F8014B03F00C03C1
:1001A0000C2BA1EB04040ABF10F8013BA4EB831451
:1001B000A4EB032405F1010314F8016B5B1E01F8A5
:1001C000016BF9D5914238BF10F8013BD1D370478C
:1001D0000023002400250026103A28BF78C1FBD850
:1001E000520728BF30C148BF0B6070471FB51FBD05
:1001F00010B510BD03F0E9F81146FFF7F7FF00F066
:1002000077FF03F007F903B4FFF7F2FF03BC03F035
:100210000BF9000010B502F0E5FB4FF4803002F05E
:1002200001FC02F03EFC044600BF002CFDD0002083
:1002300002F079FC002002F07FFC002002F085FC37
:100240004FF4E0114FF4803002F050FC012002F036
:1002500059FC00BF392002F008FC0028FAD0022027
:1002600002F053FC00BF02F059FC0828FBD100202B
:1002700002F039FC0121042002F01AFD01210820BE
:1002800002F016FD0121102002F012FD01212020B4
:1002900002F00EFD0121402002F00AFD0121084676
:1002A00002F006FD10BD42F2107106E000BF0A0028
:1002B000A1F10101FBD142F210710200A0F1010095
:1002C000F4D1704710B5F9A20821622001F0A1FB1A
:1002D000F7A21E21002001F09CFBF74802781E21A6
:1002E000282001F0A8FBF5A22E21002001F091FBAF
:1002F000F4A22E21282001F08CFBF5A23E21002043
:1003000001F087FBF4A24E21002001F082FBF4A251
:100310004E21282001F07DFBF3A25E21002001F098
:1003200078FBE8A25E21282001F073FBF0A26E2189
:10033000002001F06EFBF0A27E21002001F069FB9D
:10034000EFA27E21282001F064FBF0A28E21002084
:1003500001F05FFBEEA28E21302001F05AFBEDA2EE
:100360008E21382001F055FBECA28E21702001F087
:1003700050FB10BD10B50446012C17D1CE480078B3
:10038000401CCD49087008460078402801DB402019
:100390000870C948007802F075F8C74802781E2135
:1003A000282001F048FB3220FFF77DFFBCB9C2488E
:1003B0000078401EC049087008460078012801DC1A
:1003C00001200870BC48007802F05CF8BA48027856
:1003D0001E21282001F02FFB3220FFF764FF10BD03
:1003E00010B50446012C3DD1CD48007803281AD120
:1003F000CC480068401DCB4908600846006843F6B9
:10040000FF71884202DB0846C6490860C54800689B
:1004100001F0F2FFC3482E210268282001F00BFBF7
:100420003220FFF740FFBE48007804281AD1BD48AB
:100430000068401DBB4908600846006843F6FF712C
:10044000884202DB0846B7490860B648006801F0F8
:10045000D3FFB4482E210268282001F0ECFA3220A4
:10046000FFF721FF002C3BD1AD480078032819D1BC
:10047000AC480068401FAB49086008460068AA49BC
:10048000884202DC0846A7490860A648006801F0D7
:10049000B3FFA4482E210268282001F0CCFA3220B4
:1004A000FFF701FF9E480078042819D19D48006895
:1004B000401F9C490860084600689B49884202DC4E
:1004C0000846984908609748006801F095FF9548EC
:1004D0002E210268282001F0AEFA3220FFF7E3FE59
:1004E00010BD10B50446012C0AD190480078401C7C
:1004F0008E49087008460078052801DB0520087041
:1005000054B98A480078401E884908700846007827
:10051000012801DC0120087084480078062832D2C6
:10052000DFE800F031030C151E2701208049086028
:100530006BA24E21282001F06CFA24E005207C49B2
:1005400008607CA24E21282001F063FA1BE00A20FB
:100550007749086079A24E21282001F05AFA12E06A
:1005600064207349086077A24E21282001F051FAD7
:1005700009E04FF47A706E49086074A24E21282079
:1005800001F047FA00BF00BF10BD10B50446012CB2
:1005900076D170480078401C6E4908700846007893
:1005A000062801DB062008705D480078012804D188
:1005B00044A25E21282001F02CFA59480078022834
:1005C00046D164480078072841D2DFE800F04004B3
:1005D0000D161F283400002001F0FBFD5EA25E21F5
:1005E000282001F016FA32E0012001F0F2FD5DA2B0
:1005F0005E21282001F00DFA29E0022001F0E9FD3A
:100600005BA25E21282001F004FA20E0032001F023
:10061000E0FD5AA25E21282001F0FBF917E003203B
:1006200001F0D7FD55A25E21282001F0F2F9042047
:10063000484908700BE0032001F0CBFD4FA25E217A
:10064000282001F0E6F904204249087000BF00BFED
:1006500033480078032828D13E48007807280ED276
:10066000DFE800F0C2040F19A4AEB8000021012099
:1006700001F080FE44A25E21282001F0CAF9B3E017
:1006800001E10121084601F075FE42A25E21282009
:1006900001F0BFF9A8E00221012001F06BFE40A2A9
:1006A0005E21282001F0B5F99EE09EE04B487A00DB
:1006B000766F6C6E3A0000000C00002062666F20BE
:1006C0003A000000206E6F742D7573650000000005
:1006D0006D6F64653A000000737763683A0000004C
:1006E0002078312000000000425720203A0000000E
:1006F0004741494E3A000000424941533A00000048
:1007000020424941534F464600000000553A000040
:1007100056000000534E523A0000000064420000B0
:10072000010000201000002001C0FFFF0200002097
:10073000140000202078352000000000207831309F
:100740002000000020783130302000002078313047
:10075000303020000300002020414D20362E304B49
:100760000000000020414D20342E304B00000000DE
:1007700020414D20332E304B0000000020414D2001
:10078000322E304B0000000020535342312E324BAA
:100790000000000020535342322E324B0000000074
:1007A00020535342332E304B000000000321012020
:1007B00001F0E0FDF6A25E21282001F02AF913E005
:1007C0000421012001F0D6FDF4A25E21282001F0D1
:1007D00020F909E00521012001F0CCFDF2A25E2103
:1007E000282001F016F900BF00BFF2480078042865
:1007F00049D1F1480078072844D2DFE800F04304EB
:100800000F1A252F39000021012001F0B3FDAFF2AE
:1008100088025E21282001F0FCF833E0012108461F
:1008200001F0A8FDAFF294025E21282001F0F1F85A
:1008300028E00221012001F09DFDAFF29C025E2123
:10084000282001F0E6F81DE00321012001F092FDCF
:10085000CFA25E21282001F0DCF813E00421012062
:1008600001F088FDCDA25E21282001F0D2F809E038
:100870000521012001F07EFDCBA25E21282001F0A0
:10088000C8F800BF00BF002C7ED1CB480078401EC6
:10089000C949087008460078012801DC0120087069
:1008A000C4480078012805D1AFF2E8125E21282063
:1008B00001F0AFF8BF48007802284CD1BE4800785C
:1008C000072847D2DFE800F046040E18222C390032
:1008D000002001F07EFCAFF280125E21282001F0A2
:1008E00098F837E0012001F074FCAFF288125E2125
:1008F000282001F08EF82DE0022001F06AFCAFF212
:1009000090125E21282001F084F823E0032001F0FA
:1009100060FCAFF298125E21282001F07AF819E00D
:10092000032001F056FCAFF2AC125E21282001F04A
:1009300070F80420A04908700CE0032001F049FC85
:10094000AFF2C8125E21282001F063F804209A4912
:10095000087000BF00BF9748007803284AD1964826
:100960000078072845D2DFE800F04404101B263049
:100970003A000021012001F0FDFCAFF2F4125E21EB
:10098000282001F046F834E082E00121084601F019
:10099000F1FCAFF200225E21282001F03AF828E0B5
:1009A0000221012001F0E6FCAFF20C225E2128209A
:1009B00001F02FF81DE00321012001F0DBFC74A2FF
:1009C0005E21282001F025F813E00421012001F028
:1009D000D1FC72A25E21282001F01BF809E005215C
:1009E000012001F0C7FC70A25E21282001F011F85F
:1009F00000BF00BF6F480078042849D16E480078D6
:100A0000072844D2DFE800F043040F1A252F3900ED
:100A10000021012001F0AEFCAFF294225E212820DB
:100A200000F0F7FF33E00121084601F0A3FCAFF22C
:100A30009C225E21282000F0ECFF28E0022101200A
:100A400001F098FCAFF2A8225E21282000F0E1FF1F
:100A50001DE00321012001F08DFC4DA25E21282024
:100A600000F0D7FF13E00421012001F083FC4BA22A
:100A70005E21282000F0CDFF09E00521012001F0D2
:100A800079FC49A25E21282000F0C3FF00BF00BF0F
:100A900010BD10B50446012C79D148480068401CAF
:100AA0004649086008460068262801DB26200860C1
:100AB00040480078012824D14048006848B93F48A0
:100AC000006801F00AFB3EA26E21282000F0A1FF81
:100AD00017E03A4800681B280ADC3848006801F033
:100AE000FCFA36486E210268282000F0A4FF08E0D6
:100AF0001B203249086008466E210268282000F059
:100B00009AFF2C480078022816D12C48006848B972
:100B10002A48006801F074FB2CA26E21282000F006
:100B200078FF09E02548006801F06AFB23486E2140
:100B30000268282000F07FFF1E480078032816D1A5
:100B40001E48006848B91D48006801F06DFC22A2EB
:100B50006E21282000F05DFF09E01848006801F0D0
:100B600063FC16486E210268282000F064FF1148DB
:100B70000078042841D11148006898BB0F480068EC
:100B800001F052FC14A26E21282000F042FF34E054
:100B900020535342342E304B000000002053534268
:100BA000353030480000000020535342312E304B86
:100BB00000000000010000200300002004000020CD
:100BC00020464D2D414743200000000020414D2D7F
:100BD0004147432000000000205353422D4147432A
:100BE00000000000FFE7FD48006801F01DFCFB4825
:100BF0006E210268282000F01EFF002C7DD1F748EE
:100C00000068401EF549086008460068002801DCBD
:100C100000200860F2480078012825D1EF480068DC
:100C200050B9EE48006801F058FAAFF26C026E213C
:100C3000282000F0EEFE17E0E84800681B280ADCD8
:100C4000E648006801F049FAE4486E21026828206D
:100C500000F0F1FE08E01B20E049086008466E2124
:100C60000268282000F0E7FEDD480078022817D14E
:100C7000DA48006850B9D948006801F0C1FAAFF20B
:100C8000B4026E21282000F0C4FE09E0D3480068B9
:100C900001F0B6FAD1486E210268282000F0CBFEA0
:100CA000CF480078032817D1CC48006850B9CB480A
:100CB000006801F0B9FBAFF2E0026E21282000F0DD
:100CC000A8FE09E0C548006801F0AEFBC3486E21EC
:100CD0000268282000F0AFFEC1480078042817D130
:100CE000BE48006850B9BD48006801F09DFBAFF2F6
:100CF00018126E21282000F08CFE09E0B748006829
:100D000001F092FBB5486E210268282000F093FEA6
:100D100010BD10B50446012C08D14103B14801F0C3
:100D2000C0FDB1A27E21282000F073FE54B94FF41B
:100D30000051AC4801F0B7FDAFF23C627E212820A3
:100D400000F067FE10BD10B53220FFF7ACFA01F0DD
:100D500084FB3220FFF7A7FA42F24A40A549086017
:100D60000846006800EB800042000421082000F0E3
:100D700085FFA1A23E21282000F04BFE01F078F96A
:100D80003220FFF790FA9E48007801F07BFB32207A
:100D9000FFF789FA9148006868B99048006801F047
:100DA0009CF9AFF2E4126E21282000F032FE3220CE
:100DB000FFF779FA21E0894800681B280DDC874895
:100DC000006801F08AF985486E210268282000F049
:100DD00032FE3220FFF767FA0FE01B207F490860E0
:100DE0000846006801F079F97C486E2102682820E5
:100DF00000F021FE3220FFF756FAAFF238722E21B2
:100E0000282000F006FE3220FFF74DFA79480068EE
:100E100001F04EF93220FFF746FA10BD10B532202E
:100E2000FFF741FA01F019FB3220FFF73CFA714855
:100E300004210268082000F021FF72A23E21282030
:100E400000F0E7FD01F083F93220FFF72CFA6C483F
:100E5000007801F017FB3220FFF725FA5F480068A1
:100E600068B95E48006801F0CBF9AFF2A0226E21AC
:100E7000282000F0CEFD3220FFF715FA0CE057488D
:100E8000006801F0BDF955486E210268282000F085
:100E9000D2FD3220FFF707FAAFF2D8722E212820B8
:100EA00000F0B7FD3220FFF7FEF93220FFF7FBF923
:100EB0005048006801F075F93220FFF7F4F901207D
:100EC00052490870FFF761FB10BD10B53220FFF7E3
:100ED000EAF901F0C2FA3220FFF7E5F945480421AA
:100EE0000268082000F0CAFE49A23E21282000F036
:100EF00090FD01F0E5F93220FFF7D5F901F027FA6E
:100F00003220FFF7D0F93E48007801F0BBFA3220DA
:100F1000FFF7C9F93148006868B93048006801F046
:100F200083FAAFF24C326E21282000F072FD32209D
:100F3000FFF7B9F90CE02948006801F075FA274875
:100F40006E210268282000F076FD3220FFF7ABF911
:100F50003148006801F050FA2F482E2102682820FD
:100F600000F069FD3220FFF79EF93220FFF79BF970
:100F700001212048006801F01FFA3220FFF793F9A1
:100F8000012022490870FFF700FB10BD10B5194879
:100F900004210268082000F071FE20A23E212820D2
:100FA00000F037FD3220FFF77EF91548007801F098
:100FB00069FA3220FFF777F90848006868B90748EE
:100FC000006801F031FAAFF2F0326E21282000F013
:100FD00020FD3220FFF767F931E023E00400002014
:100FE00001000020001001402042494153204F4E93
:100FF000000000000800002020464D2000000000F6
:101000000C00002020414D200000000003000020C3
:10101000205553420000000010000020204C534295
:1010200000000000FE48006801F0FEF9FC486E2157
:101030000268282000F0FFFC3220FFF734F9F9485D
:10104000006801F0D9F9F7482E210268282000F045
:10105000F2FC3220FFF727F93220FFF724F90221B2
:10106000F148006801F0A8F910BD10B50446012C44
:101070000AD1EE480078401CEC4908700846007818
:10108000042801DB0420087054B9E8480078401EA9
:10109000E649087008460078012801DC0120087044
:1010A000E2480078012806D0022807D003280DD096
:1010B00004281BD112E0FFF746FE17E0202204218E
:1010C000002000F058FCFFF7A9FE0FE020220421C9
:1010D000002000F050FCFFF7F8FE07E0202204217A
:1010E000002000F048FCFFF751FF00BF00BF10BD1B
:1010F0001FB500250024FFF78DF801F009FA01F073
:101100001FFA00F031FB3220FFF7CDF801F02AFA88
:1011100000F08CFF3220FFF7C6F8FFF7D3F8FFF797
:1011200012FEC348007800F03DFD39E26D1C01F06D
:101130008EFA07464FF0804102F004FC0646214635
:1011400002F0C0FA0446A5F57F40FF3824D10025FF
:10115000B849204602F018FB044622468E21102092
:1011600000F0E2FC0024B148007801280AD102A86E
:1011700001F0B3F99DF80D2004238E21582000F0D2
:10118000A8FC09E0684601F094F99DF805200423C5
:101190008E21582000F09DFC4FF40071A64801F00C
:1011A00066FBC8B90220FFF77EF800BF4FF400715C
:1011B000A14801F05CFB0028F8D09D480078401C55
:1011C0009B49087008460078072801DB0720087053
:1011D0009748007800F0E6FC4FF48061964801F0F3
:1011E00046FBC8B90220FFF75EF800BF4FF48061EC
:1011F000914801F03CFB0028F8D08D480078401E53
:101200008B49087008460078012801DC012008702D
:101210008748007800F0C6FC0121874801F027FBD1
:1012200080BB0220FFF73FF800BF0121824801F098
:101230001EFB0028F9D07E480078082821D2DFE87C
:1012400000F02004080C1014181C0120FFF792F87D
:1012500017E00120FFF7C4F813E00120FFF705FFB6
:101260000FE00120FFF73DF90BE00120FFF78DF9BA
:1012700007E00120FFF70DFC03E00120FFF749FD27
:1012800000BF00BF02216C4801F0F1FA80BB0220D0
:10129000FFF709F800BF0221674801F0E8FA0028CB
:1012A000F9D063480078082821D2DFE800F0200454
:1012B000080C1014181C0020FFF75CF817E0002041
:1012C000FFF78EF813E00020FFF7CFFE0FE00020BD
:1012D000FFF707F90BE00020FFF757F907E00020C0
:1012E000FFF7D7FB03E00020FFF713FD00BF00BFAF
:1012F0004FF48041514801F0BAFA00287ED14B48A2
:101300000078012830D1484800684D4909680844F0
:10131000454908600846006842F63021884202D3F9
:101320000846414908604048006800F0C1FE0220BC
:10133000FEF7B9FF3C48006800EB80004200042142
:10134000082000F09BFC3848006842F21071884287
:1013500005D331220421002000F00DFB04E02022FF
:101360000421002000F007FB3048007802281CD13F
:101370002D4800683249096808442B49086008462E
:10138000006846F2F451884202D3084626490860B4
:101390002548006800F005FF0220FEF784FF224880
:1013A00004210268082000F069FC20480078032826
:1013B0001DD11D4800682249096808441A4908607F
:1013C0000846006846F2F451884202D3084616499E
:1013D000086001211448006800F0EEFF0220FEF7CB
:1013E00062FF114804210268082000F047FC0F4802
:1013F0000078042832D10C48006800E02EE0104943
:1014000009680844084908600846006846F2F45133
:10141000884202D30846044908600221024811E0CC
:10142000040000201000002008000020010000201F
:101430000000002000FF7F4700080140001001402D
:1014400014000020006800F0B7FF0220FEF72BFF19
:10145000544804210268082000F010FC4FF40041B9
:10146000514801F004FA00287ED150480078012844
:101470002FD14C4800684E490968401A4949086014
:1014800008460068B0F5C85F02D84FF4C85008603D
:101490004448006800F00CFE0220FEF704FF4148BB
:1014A000006800EB800042000421082000F0E6FB09
:1014B0003C48006842F21071884205D33122042171
:1014C000002000F058FA04E020220421002000F05F
:1014D00052FA3648007802281CD132480068344954
:1014E0000968401A2F4908600846006840F6FC0168
:1014F000884202D808462B4908602A48006800F054
:1015000050FE0220FEF7CFFE264804210268082084
:1015100000F0B4FB2548007803281DD1214800685D
:1015200023490968401A1F4908600846006840F6C8
:10153000FC01884202D808461A490860012119486E
:10154000006800F039FF0220FEF7ADFE15480421C7
:101550000268082000F092FB1448007804281FD18C
:1015600010480068124900E01AE00968401A0D4965
:1015700008600846006840F6FC01884202D8084628
:101580000849086002210748006800F015FF0220A2
:10159000FEF789FE034804210268082000F06EFB74
:1015A000C4E50000080000200010014001000020F8
:1015B00014000020704700BFFEE700BFFEE700BF39
:1015C000FEE700BFFEE770477047704700BF0100AD
:1015D000A0F10100FBD1704708B5F820ADF800007C
:1015E00010208DF8030003208DF802006946F948A9
:1015F00001F0ACF808BD08B50120ADF800001020DE
:101600008DF8030003208DF802006946F24801F0CE
:101610009DF808BD70B504460025082517E014F0B4
:10162000800F04D08021EB4801F03BF903E08021DA
:10163000E84801F038F92021E64801F034F920218A
:10164000E44801F02EF96006040E681EC5B2002DB4
:10165000E5DC70BD10B504464021DE4801F023F9F9
:101660000121DD4801F01FF92046FFF7D3FF40219B
:10167000D84801F016F910BD10B504464021D548F0
:1016800001F011F90121D44801F00BF92046FFF7D0
:10169000C1FF4021CF4801F004F910BD10B5044648
:1016A0004021CC4801F0FFF80121CB4801F0F9F8C6
:1016B0002012FFF7AFFFE0B2FFF7ACFF4021C548B3
:1016C00001F0EFF810BD70B505460C462846FFF74F
:1016D000C1FF2046FFF7D0FF70BD2DE9F04107465E
:1016E0000C4615461E462A20FFF7B4FF3846FFF782
:1016F000D5FF2846FFF7D2FF2B20FFF7ABFF204690
:10170000FFF7CCFF3046FFF7C9FF2C20FFF7A2FF01
:10171000BDE8F08170B504460D461646681C83B2DC
:10172000601C82B229462046FFF7D7FF3046FFF7FC
:10173000B5FF70BD70B50646002400259F237F22AB
:1017400000210846FFF7C9FF00BF0AE0002504E0BA
:101750003046FFF7A3FF681CC5B2A02DF8DB601C64
:10176000C4B2802CF2DB70BD10B5FFF735FFFFF778
:1017700042FF1021974801F094F84FF47A70FFF778
:1017800025FF1021934801F08EF84FF47A70FFF78F
:101790001DFF10218F4801F084F84FF4FA60FFF725
:1017A00015FF1120FFF756FF4FF4FA60FFF70EFF09
:1017B000B120FFF74FFF0220FFF75EFF3520FFF754
:1017C0005BFF3620FFF758FFB220FFF743FF0220F0
:1017D000FFF752FF3520FFF74FFF3620FFF74CFF92
:1017E000B320FFF737FF0220FFF746FF3520FFF752
:1017F00043FF3620FFF740FF0220FFF73DFF352073
:10180000FFF73AFF3620FFF737FFB420FFF722FF3C
:101810000320FFF731FFC020FFF71CFFA220FFF7D6
:101820002BFF0220FFF728FF8420FFF725FFC120B0
:10183000FFF710FFC520FFF71FFFC220FFF70AFFC9
:101840000D20FFF719FF0020FFF716FFC320FFF759
:1018500001FF8D20FFF710FF2A20FFF70DFFC420A6
:10186000FFF7F8FE8D20FFF707FFEE20FFF704FFDC
:10187000C520FFF7EFFE0A20FFF7FEFE3620FFF738
:10188000E9FEC820FFF7F8FEE020FFF7E3FE122094
:10189000FFF7F2FE1C20FFF7EFFE1020FFF7ECFE33
:1018A0001820FFF7E9FE3320FFF7E6FE2C20FFF7B4
:1018B000E3FE2520FFF7E0FE2820FFF7DDFE2820CD
:1018C000FFF7DAFE2720FFF7D7FE2F20FFF7D4FE21
:1018D0003C20FFF7D1FE0020FFF7CEFE0320FFF7EC
:1018E000CBFE0320FFF7C8FE1020FFF7C5FEE12066
:1018F000FFF7B0FE1220FFF7BFFE1C20FFF7BCFE73
:101900001020FFF7B9FE1820FFF7B6FE2D20FFF7D5
:10191000B3FE2820FFF7B0FE2320FFF7ADFE2820FE
:10192000FFF7AAFE2820FFF7A7FE2620FFF7A4FE58
:101930002F20FFF7A1FE3B20FFF79EFE0020FFF7C0
:101940009BFE0320FFF798FE0320FFF795FE102073
:10195000FFF792FE3A20FFF77DFE0520FFF78CFE91
:101960002920FFF777FE0020FFF7E4FE0821194841
:1019700000F097FF10BD2DE9F04705460E461746CB
:101980004FF0000A802D01DCA02E01DDBDE8F087BC
:10199000A7F12000C7B206F1100083B205F10800DC
:1019A00082B231462846FFF798FE4FF0000A04E065
:1019B0000020FFF773FE0AF1010ABAF1860FF7DB88
:1019C000002422E004EB0710044911F800904FF0C6
:1019D000000815E000080140000C0140180000203C
:1019E00019F0010F08D0321991B205EB080290B23C
:1019F0004FF6FF72FFF78EFE4FEA690908F1010802
:101A0000B8F1080FECDB601CC4B2102CDADB00BFAD
:101A1000BCE770B505460E46144608E02278B1B220
:101A20002846FFF7A8FF05F1080085B2641C20785E
:101A30000028F3D170BD2DE9FC4106460F4615463E
:101A4000002D20DB07240CE00A2095FBF0F100FBC1
:101A500011503030C0B20DF804000A2095FBF0F5AB
:101A6000641E002CF0DC20208DF80000002408E02B
:101A70001DF8042006EBC40188B23946FFF77BFF4E
:101A8000641C082CF4DB002D21DA6D4207240CE0E5
:101A90000A2095FBF0F100FB11503030C0B20DF878
:101AA00004000A2095FBF0F5641E002CF0DC2D20CC
:101AB0008DF80000002408E01DF8042006EBC401A6
:101AC00088B23946FFF757FF641C082CF4DBBDE8E9
:101AD000FC812DE9FC410646884615461F46072431
:101AE0000CE00A2095FBF0F100FB11503030C0B241
:101AF0000DF804000A2095FBF0F5641E002CF0DCC4
:101B000020208DF8000001240AE0211D1DF801208D
:101B100006EBC401083988B24146FFF72CFF641C6C
:101B2000BC42F2DBBDE8FC812DE9FC470646884655
:101B3000174600257349384601F004FF814601F03D
:101B4000E5FE054607240CE00A2095FBF0F100FBBA
:101B500011503030C0B20DF804000A2095FBF0F5AA
:101B6000641E022CF0DC20208DF800000A2095FB7A
:101B7000F0F100FB11503030C0B28DF801002E2082
:101B80008DF80200012409E01DF8042006EBC401D1
:101B9000083988B24146FFF7EEFE641C052CF3DBE2
:101BA000BDE8FC8770B5044600258E237C221E21EB
:101BB0006C20FFF792FD00BF03E00020FFF76EFDF1
:101BC0006D1CB5F5EA6FF8DB0E2000EB04114EA298
:101BD0006C20FFF71EFF70BD2DE9F04707468846D1
:101BE000924608F11A0083B207F1100082B2414612
:101BF0003846FFF772FD002403E00020FFF74EFD9A
:101C0000641CB4F5E57FF8DD002533E000262DE007
:101C10000AEB8A0000EBCA003C4901EB800006EBAE
:101C2000450110F8019000241DE019F0010F17D0B4
:101C300008EB050C1FFA8CF307EBC60CA4441FFA43
:101C40008CF208EB050C1FFA8CF107EBC60CA444D0
:101C50001FFA8CF0FFF741FD4FF47E40FFF71EFDA9
:101C60004FEA6909641C082CDFDB761C022ECFDBEF
:101C7000681CC5B21A2DC9DBBDE8F087F0B585B088
:101C800005460F46164604240BE00A2096FBF0F1A9
:101C900000FB116030304DF824000A2096FBF0F66E
:101CA000641E002CF1DA002408E01DF8242005EB66
:101CB000041188B23946FFF78FFF641C022CF4DB55
:101CC000022409E01DF8242005EB0411083188B234
:101CD0003946FFF781FF641C052CF3DB05B0F0BD2E
:101CE00070B505460E46144608E02278314628466F
:101CF000FFF772FF05F1100085B2641C2078002800
:101D0000F3D170BD0050C3473C2D0000C63B000816
:101D1000022000BF0100A0F10100FBD1704700B517
:101D2000034601E0FFF7F4FF1800A3F10103F9D126
:101D300000BD08B52020ADF8000010208DF803008C
:101D400003208DF802006946FE4800F0FFFC08BD44
:101D500010B5FFF7EEFF2021FA4800F0A2FD402168
:101D6000F84800F09EFDFFF7D3FF2021F54800F072
:101D70007EFD08B9002010BD2021F24800F093FD3F
:101D8000FFF7C6FF2021EF4800F071FD08B10020E9
:101D9000F1E74021EB4800F086FD0120EBE710B5AC
:101DA000FFF7C7FF4021E74800F07DFD2021E5480F
:101DB00000F079FDFFF7ACFF4021E24800F071FD33
:101DC000FFF7A6FF2021DF4800F06BFDFFF7A0FF23
:101DD00010BD10B54021DB4800F065FDFFF7A9FFFD
:101DE0002021D84800F05FFDFFF792FF4021D54841
:101DF00000F057FDFFF78CFF4021D24800F053FD63
:101E000010BD10B54021CF4800F04DFDFFF791FF08
:101E1000FFF77EFF2021CB4800F043FDFFF778FF5E
:101E20004021C84800F03DFDFFF772FF4021C54842
:101E300000F039FD10BD08B52020ADF800004820A5
:101E40008DF803006946BF4800F080FC08BD10B55E
:101E50000024FFF7F0FF2021BA4800F022FDFFF731
:101E600057FF4021B74800F01CFDFFF751FF09E084
:101E7000601CC4B2FA2C05DD4021B24800F013FD0D
:101E8000002010BD2021AF4800F0F1FC0028EFD168
:101E90004021AC4800F007FD0120F2E770B5044690
:101EA000FFF747FF00251DE04021A64800F0FBFC9E
:101EB000FFF72EFF14F0800F04D02021A14800F07E
:101EC000F0FC03E020219F4800F0EDFC6006040ECA
:101ED000FFF71EFF40219B4800F0E3FCFFF718FFCF
:101EE000681CC5B2082DDFDB4021964800F0DBFC02
:101EF000FFF76FFFFFF70CFF70BD70B50546FFF7EA
:101F00009AFF002618E040218E4800F0CCFCFFF735
:101F1000FFFE40218B4800F0C4FC4FF6FF7000EA42
:101F200044042021874800F0A2FC08B144F00104D9
:101F3000FFF7EEFE701CC6B2082EE4DB012D02D1C5
:101F4000FFF75FFF01E0FFF744FFE0B270BD08B5A7
:101F50004FF4F070ADF8000010208DF8030003205E
:101F60008DF802006946774800F0F0FB4FF480716D
:101F7000744800F098FC8021724800F092FC08BD83
:101F800010B5FFF7E4FF40216E4800F08AFC2021E5
:101F90006C4800F086FC10BD2DE9F04107460E4666
:101FA0001546FFF7D5FE00F0FF082220FFF776FF69
:101FB000FFF7AEFE3846FFF771FFFFF7A9FE4DB100
:101FC000002405E0305DFFF769FFFFF7A1FE641C08
:101FD000AC42F7D3FFF7E3FE4046BDE8F0812DE9C0
:101FE000F04104460D46FFF7B3FEC7B22320FFF7CA
:101FF00055FFFFF78DFE012D0DDD002608E0FFF7F0
:1020000087FE0020FFF779FF2070641C701CC6B2A9
:10201000681EB042F3DCFFF77BFE0120FFF76DFF87
:102020002070FFF7BCFE3846BDE8F08110B5FFF721
:10203000A7FF1E20FFF773FE8021424800F031FC0D
:102040001E20FFF76CFE80213E4800F02CFC1E2075
:10205000FFF765FE4FF480713A4800F024FC1E2023
:10206000FFF75DFE4FF48071364800F01AFC10BD9A
:102070001CB5012400208DF8000005208DF801001A
:10208000022269462046FFF787FF1CBD7CB5044647
:10209000212514B900208DF80000012C02D1082060
:1020A0008DF80000012269462846FFF775FF7CBDC8
:1020B0007CB50446202500208DF80000200A8DF80C
:1020C0000100E0B28DF8020000208DF80300042228
:1020D00069462846FFF760FF7CBD7CB5044628258D
:1020E00034B900208DF800001A208DF8010007E0B7
:1020F00001208DF80000C4F11B00C0B28DF8010072
:10210000022269462846FFF747FF7CBD7CB504469E
:10211000122500208DF8000011208DF8010000200C
:102120008DF802008DF80300012C02D101208DF8FA
:102130000400022C02D102208DF804000522694619
:10214000284601E0000C0140FFF726FF7CBD1CB5CE
:10215000012401208DF8000005208DF801000222E5
:1021600069462046FFF718FF1CBD7CB50446412593
:1021700014B900208DF80000012C02D108208DF840
:10218000000000208DF801008DF802008DF803009A
:10219000FF208DF80400052269462846FFF7FCFE63
:1021A0007CBD7CB50446402500208DF80000200A47
:1021B0008DF80100E0B28DF8020000208DF80300D8
:1021C000FF208DF80400052269462846FFF7E4FE4B
:1021D0007CBD7CB50446122500208DF8000031201E
:1021E0008DF8010002208DF8020000208DF8030018
:1021F0008DF80440052269462846FFF7CDFE7CBDD8
:102200007CB50446482534B900208DF8000025200F
:102210008DF8010007E001208DF80000C4F12600D0
:10222000C0B28DF80100022269462846FFF7B4FECD
:102230007CBD7CB50446122500208DF800003420BA
:102240008DF8010000208DF80200200A8DF80300AF
:10225000E0B28DF80400052269462846FFF79CFE8F
:102260007CBD7CB50446122500208DF8000034208A
:102270008DF8010001208DF80200200A8DF803007E
:10228000E0B28DF80400052269462846FFF784FE77
:102290007CBD7CB50446122500208DF8000034205A
:1022A0008DF8010002208DF8020000208DF8030057
:1022B0008DF80440052269462846FFF76DFE7CBD77
:1022C0001CB5012461208DF8000005208DF8010067
:1022D000022269462046FFF75FFE1CBDFEB506469A
:1022E0000024002500BF2CE0375D012506E02819F9
:1022F000315C681E01AA1154681CC5B2082DF6DBBA
:10230000072201A93846FFF747FEA4F57450D038DC
:1023100003D14FF47A50FFF702FD4FF4F070FFF74E
:10232000FEFC01216846FFF75AFE9DF80000802858
:1023300006D074A21E210846FFF76BFB0020FEBDED
:10234000083443F6D8508442CED30120F7E710B5C5
:102350006E48FFF7C3FF10BD1CB5012401208DF8A6
:10236000000005208DF80100022269462046FFF793
:1023700013FE1CBD7CB506460C46122500208DF8C8
:10238000000001208DF801008DF80200032C08DC0C
:1023900080208DF8030004F11000C0B28DF8040015
:1023A00004E080208DF803008DF804400522694682
:1023B0002846FFF7F1FD7CBD7CB504460D4640265E
:1023C000012D02D180208DF80000022D02D1402085
:1023D0008DF80000200A8DF80100E0B28DF80200AF
:1023E00000208DF80300FF208DF8040005226946C7
:1023F0003046FFF7D1FD7CBD7CB504461225002098
:102400008DF8000001208DF8010000208DF80200F9
:10241000200A8DF80300E0B28DF804000522694619
:102420002846FFF7B9FD7CBD7CB50446482534B984
:1024300000208DF8000025208DF8010007E0012024
:102440008DF80000C4F12600C0B28DF80100022210
:1024500069462846FFF7A0FD7CBD1CB5112400206D
:102460008DF800008DF80100002269462046FFF734
:1024700093FD1CBD1CB51024002269462046FFF7C1
:102480008BFD1CBD7CB50446122500208DF8000094
:1024900040208DF8010000208DF802008DF8030027
:1024A000E0B28DF80400052269462846FFF774FD66
:1024B0007CBD7CB50446432500208DF80000012238
:1024C00069462846FFF768FD4EF66020FFF727FCB7
:1024D00006212046FFF783FD7CBD7CB504462325FD
:1024E00000208DF80000012269462846FFF754FDC0
:1024F0004EF66020FFF713FC08212046FFF76FFD22
:102500007CBD00004552524F5200000008060020DA
:1025100008B540F20360ADF8000048208DF80300D4
:1025200069460E4800F012F94FF44040ADF8000043
:1025300048208DF803006946094800F007F908BDF6
:1025400008B54FF40050ADF8000028208DF80300C6
:102550006946034800F0FAF808BD00000008014091
:102560000010014000B587B00121480200F0A0FB37
:102570004FF4004000F003FB0420ADF804000020FD
:102580008DF8070001A93D4800F0E0F83C4800F054
:10259000F7FB002002908DF80C008DF80D004FF431
:1025A000602004900020059001208DF8180002A9F9
:1025B000334800F00CFC0121314800F034FC304875
:1025C00000F053FC00BF2E4800F054FC0028FAD164
:1025D0002B4800F059FC00BF294800F05AFC0028A5
:1025E000FAD107B000BD10B50121254800F05BFC11
:1025F000072301220221224800F081FC00BF0221B2
:102600001F4800F0ABFD0028F9D002211C4800F063
:10261000BBFD1B4800F0DAFC10BD10B501211848C5
:1026200000F041FC072301221121154800F067FC4E
:1026300000BF0221124800F091FD0028F9D00221CC
:102640000F4800F0A1FD0E4800F0C0FC10BD2DE9C0
:10265000F0470024A146FFF7C6FF8146484600F038
:102660001CFF0746074A084B00F02EFF054600F006
:10267000E3FE04462046BDE8F08700000008014064
:1026800000240140435C2095143F4A3F10B50446A6
:10269000CA48844208D10121042000F023FB002114
:1026A000042000F01FFB46E0C548844208D1012108
:1026B000082000F017FB0021082000F013FB3AE08F
:1026C000C048844208D10121102000F00BFB0021FA
:1026D000102000F007FB2EE0BB48844208D1012106
:1026E000202000F0FFFA0021202000F0FBFA22E079
:1026F000B648844208D10121402000F0F3FA0021BD
:10270000402000F0EFFA16E0B148844208D10121E0
:10271000802000F0E7FA0021802000F0E3FA0AE0D0
:10272000AC48844207D10121801500F0DBFA00217A
:10273000A01500F0D7FA10BD10B50121084600F031
:10274000D1FA0021012000F0CDFA10BD2DE9F041B1
:10275000024600250026002000230024002791F8CF
:1027600003C00CF00F0591F803C01CF0100F03D04C
:1027700091F802C04CEA050591F800C0BCF1000FC9
:1027800031D0146800202BE04FF0010C0CFA00F35C
:10279000B1F800C00CEA03069E4220D183004FF03E
:1027A0000F0C0CFA03F7BC4305FA03FC4CEA0404D3
:1027B00091F803C0BCF1280F06D14FF0010C0CFAC0
:1027C00000FCC2F814C00AE091F803C0BCF1480F45
:1027D00005D14FF0010C0CFA00FCC2F810C0401CEF
:1027E0000828D1D31460B1F800C0BCF1FF0F34DD6C
:1027F000546800202EE000F1080C4FF0010808FAA0
:102800000CF3B1F800C00CEA03069E4221D183000C
:102810004FF00F0C0CFA03F7BC4305FA03FC4CEA2B
:10282000040491F803C0BCF1280F05D100F1080C95
:1028300008FA0CF8C2F8148091F803C0BCF1480FF4
:1028400007D100F1080C4FF0010808FA0CF8C2F8A3
:102850001080401C0828CED35460BDE8F0814FF6AC
:10286000FF710180022181700421C170704702460E
:10287000002093680B4201D0012000E00020704747
:102880000146886880B2704702460020D3680B4238
:1028900001D0012000E0002070470146C86880B2E6
:1028A000704701617047416170470AB1016100E002
:1028B00041617047C16070474FF480320A438261C2
:1028C0008161826182698269704702460020424BC1
:1028D00018684FF68073184040EA021008433E4BD8
:1028E000186070473D49C8617047F0B50A4600233B
:1028F00000240021002500F00046B6F1004F02D16F
:10290000354EF16901E0344E7168C0F3034583B27E
:1029100000F44016B6F5401F08D121F070612E4E2C
:10292000766826F070662C4F7E6012E000F4801608
:10293000B6F5801F06D1032606FA05F4A14341F03F
:10294000706106E0460D360103FA06F6B14341F028
:10295000706122B1460D360103FA06F6314300F0EC
:102960000046B6F1004F02D11B4EF16101E01A4E54
:102970007160F0BD30B500228B071C0F0F2303FAE6
:1029800004F2154B08338C1053F824309343124C47
:1029900008348D1044F8253023468C1053F8243029
:1029A0008C07240F00FA04F423430B4C08348D10D9
:1029B00044F8253030BD0A490860704700080140DE
:1029C000000C0140001001400014014000180140BB
:1029D000001C014000200140000001400000204296
:1029E000DC002042DB48006840F00100D949086063
:1029F00008464068D8490840D649486008460068FB
:102A0000D6490840D34908600846006820F4802071
:102A100008600846406820F4FE0048604FF41F003C
:102A200088607047CB49096821F48031C94A116038
:102A30001146096821F480211160B0F5803F03D070
:102A4000B0F5802F0ED106E0C249096841F480310B
:102A5000C04A116007E0BF49096841F4A021BD4A9E
:102A6000116000E000BF00BF704710B501460022B2
:102A7000002300204A11012A02D1B64C236806E047
:102A8000022A02D1B34C236A01E0B24C636A01F01E
:102A90001F02012494401C4201D0012000E00020CC
:102AA00010BD70B500240025002600BF3120FFF7BF
:102AB000DCFF0646641CB4F5A06F01D0002EF5D0F3
:102AC0003120FFF7D2FF08B1012500E0002528469C
:102AD00070BD014600209F4A106820F0F80040EACF
:102AE000C100106070479E49086070470246002090
:102AF000984B586820F47C1042EA01031843954B28
:102B00005860704796490866704701460020914A10
:102B1000506820F003000843506070478D484068BB
:102B200000F00C007047014600208A4A506820F0EF
:102B3000F00008435060704701460020854A506805
:102B400020F4E06008435060704701460020814A4D
:102B5000506820F4605040EAC1005060704729B1CD
:102B60007C4A527A02437B4B5A7204E0794A527A89
:102B70008243784B5A7270477A4908607047014621
:102B80000020744A506820F4404008435060704769
:102B90000021754A11706F4A82F82010012802D076
:102BA000042808D103E001216F4A117004E00521D7
:102BB0006D4A117000E000BF00BF70476B490860AC
:102BC00070476449096A0143624A11627047674964
:102BD00044390860704730B50021002200240023EA
:102BE0005C4D6D6805F00C0121B1042905D0082960
:102BF00023D105E05E4D056022E05D4D05601FE0DC
:102C0000544D6D6805F47012524D6D6805F48034B2
:102C1000022505EB92421CB9564D554305600BE069
:102C20004C4D6D6815F4003F03D0524D554305607F
:102C300002E04F4D5543056002E04D4D056000BF79
:102C400000BF444D6D6805F0F00109094A4D6B5C09
:102C50000568DD4045603F4D6D6805F4E061090A97
:102C6000454D6B5C4568DD4085603A4D6D6805F407
:102C70006051C90A404D6B5C4568DD40C560354D0B
:102C80006D6805F44041890B3C4D6B5CC568B5FB34
:102C9000F3F5056130BD29B12E4A526902432D4B2F
:102CA0005A6104E02B4A526982432A4B5A617047A9
:102CB00029B1284A92690243264B9A6104E0254AC9
:102CC00092698243234B9A61704729B1214AD269A4
:102CD0000243204BDA6104E01E4AD26982431D4B55
:102CE000DA61704729B11B4AD2680243194BDA6096
:102CF00004E0184AD2688243164BDA60704729B163
:102D0000144A12690243134B1A6104E0114A126912
:102D10008243104B1A61704714494039086070476C
:102D20000F49C86470470B49C87170470948406A29
:102D300040F0807007494862704701460020054A0C
:102D400092680A4201D0012000E00020704701494A
:102D500088727047001002400000FFF8FFFFF6FE87
:102D600000004242D8004242201002408004424209
:102D700000127A0000093D00E0430020F0430020EB
:102D800010B50446F948844208D101214015FFF7E7
:102D9000A9FF00216015FFF7A5FF17E0F448844262
:102DA00008D101210015FFF79DFF00212015FFF735
:102DB00099FF0BE0EF48844208D10121C803FFF7D7
:102DC00091FF00214FF40040FFF78CFF10BD30B59C
:102DD0000246002000235068E74C20400D790C6823
:102DE00044EA0524204350609068E44C2040D1E937
:102DF00002542C434D7944EA450420439060D06A44
:102E000020F470000C7C641EE4B2234340EA0350BB
:102E1000D06230BD00210160017141718160C160EB
:102E200001210174704721B1826842F00102826081
:102E300003E0826822F001028260704721B182685B
:102E400042F48072826003E0826822F480728260C1
:102E5000704710B50023CBB21AB144681C434460DC
:102E600002E044689C43446010BD816841F0080161
:102E700081607047014600208A6812F0080F01D077
:102E8000012000E000207047816841F0040181606A
:102E90007047014600208A6812F0040F01D001201B
:102EA00000E00020704721B1826842F4A0028260F5
:102EB00003E0826822F4A00282607047014600208D
:102EC0008A6812F4800F01D0012000E000207047D2
:102ED00010B50A4600210023416821F46041531EC9
:102EE00041EA4331416010BD21B1426842F40062C1
:102EF000426003E0426822F4006242607047F0B52D
:102F000004460D4600200021092D11DDE068A5F1E1
:102F10000A0606EB4607072606FA07F18843A5F1DD
:102F20000A0606EB460603FA06F10843E0600CE0E9
:102F3000206905EB4507072606FA07F1884305EBEC
:102F4000450603FA06F108432061072A0FDA606B91
:102F5000561E06EB86071F2606FA07F18843561E03
:102F600006EB860605FA06F10843606322E00D2AA7
:102F70000FDA206BD61F06EB86071F2606FA07F12D
:102F80008843D61F06EB860605FA06F10843206340
:102F900010E0E06AA2F10D0606EB86071F2606FA8E
:102FA00007F18843A2F10D0606EB860605FA06F145
:102FB0000843E062F0BD21B1826842F48012826071
:102FC00003E0826822F48012826070470146C86C78
:102FD00080B2704765484C300068704721B1426844
:102FE00042F48062426003E0426822F48062426000
:102FF000704721B1426842F48052426003E0426867
:1030000022F48052426070470A460021816821F410
:10301000E04111438160704721B1826842F400426F
:10302000826003E0826822F400428260704721B12E
:10303000826842F40212826003E0826822F4021283
:1030400082607047014600208A6812F4001F01D098
:10305000012000E000207047F0B50446154600202E
:1030600000220026092911DDE068A1F10A0707EB1B
:10307000470C072707FA0CF29043A1F10A0707EB68
:10308000470703FA07F21043E0600CE0206901EB08
:10309000410C072707FA0CF2904301EB410703FAB2
:1030A00007F210432061A06BC0F30156EF1C06F13C
:1030B000010CA7EB0C0707EB870C1F2707FA0CF294
:1030C0009043EF1C06F1010CA7EB0C0707EB8707F9
:1030D00001FA07F21043A063F0BD10B50A460021C3
:1030E0000023816B21F44011531E41EA0351816397
:1030F00010BD10B5002303460B441A6010BD0246F4
:103100000023134601F128000344186880B2704779
:103110000A46002141681A4B19401143416070472B
:103120004162826270470A460021416821F01F0116
:1031300011434160704740B10C490831096841F4BE
:1031400000010A4A0832116007E00849083109689D
:1031500021F40001054A0832116070470246002040
:1031600013680B420ED001200DE000000024014046
:1031700000280140003C0140FFFEF0FFFDF7F1FF99
:10318000FFFD3FFF00207047CA430260704770B5E3
:1031900002460020002300240B125568CEB205EA37
:1031A000060415681D4202D00CB1012000E0002089
:1031B00070BD00220A12D34303607047094880475C
:1031C00009480047FEE7FEE7FEE7FEE7FEE7FEE709
:1031D000FEE7FEE7FEE7FEE704480549054A064B21
:1031E00070470000C5320008310100086844002023
:1031F000684A002068460020684600200021002020
:10320000674A126842F48032654B1A6000BF644A14
:10321000126802F40030491C10B9B1F5A06FF6D164
:103220005F4A126812F4003F01D0012000E0002044
:10323000012842D15B4A126842F01002594B1A60D1
:103240001A46126822F003021A601A46126842F007
:1032500002021A60524A5268514B5A601A4652682A
:103260005A601A46526842F480625A601A4652689E
:1032700022F47C125A601A46526842F4E8125A60EC
:103280001A46126842F080721A6000BF444A1268FF
:1032900012F0007FFAD0424A526822F00302404BFB
:1032A0005A601A46526842F002025A6000BF3C4A15
:1032B000526802F00C02082AF9D1704710B5FFF7E6
:1032C0009DFF10BD10B53648006840F0010034493C
:1032D000086008464068344908403149486008465B
:1032E0000068324908402E4908600846006820F40A
:1032F000802008600846406820F4FE0048604FF4D3
:103300001F008860FFF7DAFF4FF00060284908606F
:1033100010BD10B5002100200022214B5B6803F096
:103320000C0121B1042906D0082928D107E0214B3E
:10333000214C236027E01F4B1F4C236023E0184BD8
:103340005B6803F47010164B5B6803F48032022351
:1033500003EB904022B9194B4343174C23600DE017
:103360000F4B5B6813F4003F04D0144B4343124CE3
:10337000236003E00F4B43430F4C236003E00D4BEE
:103380000D4C236000BF00BF054B5B68C3F3031304
:103390000B4CE15C084B1B68CB40074C236010BD15
:1033A00000100240002002400000FFF8FFFFF6FE80
:1033B00008ED00E000127A00F443002000093D000F
:1033C000F8430020704770477047754600F028F8B2
:1033D000AE4605006946534620F00700854618B002
:1033E00020B5FFF7F9FEBDE820404FF000064FF092
:1033F00000074FF000084FF0000B21F00701AC462A
:10340000ACE8C009ACE8C009ACE8C009ACE8C00948
:103410008D4670470446AFF300802046FCF7F3FE6C
:10342000004870470844002001491820ABBEFEE761
:10343000260002007047000021F00042A2F1605215
:10344000B2F5801F01F0004328BFD2F17F6C0BD989
:103450005FEA001C43EAC20242EB507018BF70479B
:1034600028BF20F001007047B2F5801FBCBF18468E
:1034700070474FEA410C1CF5001F02D2084600F0CD
:1034800028BB70B500F0CAF800000089FFF7F6BF4E
:103490004FF00040A0F58000704710F0004248BF98
:1034A0004042B0FA80F310FA03F10AD0C3F11D03D1
:1034B00003F580634FEA415002EB035202EBD12146
:1034C00070474FF000007047DFF848C170B51CEA44
:1034D000111E1EBF1CEA13159EEA0C0F95EA0C0F75
:1034E00000F06F8081EA030423EA4C134EEAD47E95
:1034F00021EA4C1141F4801143F48013AE44A1FB46
:10350000024CA0FB0365AEF17F7E361955EB0C052E
:10351000A1FB034C4CF10003A0FB021C16EB0C06B4
:10352000654153F10003094218BF46F0010613F448
:10353000007F0BD14FEA03314FEA0530340341EAF3
:10354000155140EA16506FF003020AE04FEAC3211A
:103550004FEAC520F40241EA555140EA56506FF057
:10356000020202EB2E4201EB025585EACE710AD02F
:103570005FEA440C18BF24F0004450F1000041F110
:10358000000120EAD47040F2FE7C624500D270BD9A
:10359000A84214BF4FF080444FF04044002E08BFB3
:1035A0000024BEF1806FA8BFA1F1C041BDE870400A
:1035B00080F282804FF0000001F1C04101F0004133
:1035C00070479EEA0C0F0CEA131518BF95EA0C0F12
:1035D00006D04FF0000081EA030E0EF0004170BDEE
:1035E00000F01CF88900013E00F007B800F009B8AF
:1035F0004FEA430C5FEA5C5C08D081EA030100F00B
:103600005BB84FEA410C5FEA5C5CF6D14FF000001A
:10361000014970470000FF070000F87F0EF1020E1D
:103620002EF0030E5EF8046B364205D4012A43EBFC
:10363000030515F5001F12D8012841EB010C1CF5FC
:10364000001F0CD80ED14FEAD17C15F5001F0CEBF2
:103650004C0C0CF1020C08BF4CEBD37C04E04FF097
:10366000080C01E04FEAD37C0CEB4C0526FA05F67A
:1036700006F00706B6F1040C06D20EEB860CBDE888
:1036800070404CF0010C6047DFE80CF0090B0202BF
:103690004FF000414FF00000A1F5002170BD194628
:1036A0001046012851EB010418BFD4F5001484BF63
:1036B000002001F0004170BD0808A0F500114FEA9C
:1036C0003101704790EA010F48BF81F0004100F1DD
:1036D0000C82421A3CBF801A89184FEAD0524FF030
:1036E0007F4C1CEA410FA2EBD15318BF9CEA026F3A
:1036F00000F03B804FF0004C4CEA00204CEA0121E6
:1037000021FA03FC10EB0C0C1ED202F1FF325FEA2F
:103710001C2040EBC25038BF70471CF07F0F4FEAAF
:10372000400C18BFBCF17F4F38BF7047C3F1200376
:10373000994008BF20F00100BCF17F4F38BF7047AF
:10374000A0F1C04000F0C5B94FEA3C00000A40EBD0
:10375000C25028BF1CF0FF0F4FEA400CE6D018BF44
:10376000BCF17F4F38BF7047EAE79CEA026F05D093
:1037700010EA5C0F08BF00F00040704710B500F081
:1037800062F900BF64FBBE3E4FF47F0C1CEAD0120E
:103790001EBF1CEAD11392EA0C0F93EA0C0F00F043
:1037A000858090EA010F48BF42F4807240F4000C1B
:1037B00041F400002CF07F4120F07F4000B58142B1
:1037C000A2EB03020FF2081CACEB504EC0F100005C
:1037D0009EF800E04FEA4E0E00FB0EFC38BF490099
:1037E0004FEA2C1C02F5FA020CFB0EF34FEACE1E38
:1037F0004FEA112C4FEAC1210EEB635E42EB2242ED
:103800000EFB0CFC4FEA1C5300FB03114FEA112C7A
:103810004FEA01310EFB0CFC4FEADC4C00FB0C11B3
:10382000C14228BF09184CEB03335DF804EB10EBE1
:10383000410143EBC250B2F57C0F38BF704729D528
:1038400012F0F00F1CBF00F1C04000F000407047C4
:10385000008182838485868788898B8C8D8E8F9169
:103860009293959697999A9C9D9FA0A2A3A5A7A88D
:10387000AAACAEB0B2B3B5B7B9BCBEC0C2C5C7C9B9
:10388000CCCED1D4D7D9DCDFE2E6E9ECF0F3F7FA1D
:10389000FE0000004FEA400C0CF1807CBCF17E4F32
:1038A00028BF7047B0F1C04000F013B990EA010F93
:1038B0000CEAD11348BF42F48072624538BF6345B9
:1038C00007D213F47F0F16D080EA010000F0004009
:1038D000704710B500F0B7F8097EFC3E00F005B85F
:1038E00080EA010000F00040704780EA010000F02B
:1038F000004000F0EEB812F47F0F04BF024870479A
:1039000080EA010000F0E5B80000C07F41000B0E26
:10391000D3F19E0208D950F400034FEA032323FA9F
:1039200002F048BF4042704710B500F08CF800BF6D
:1039300049922480002070476FF0004282EA200004
:10394000704700004FF47F0C1CEAD0121EBF1CEA27
:10395000D11392EA0C0F93EA0C0F00F0478090EA23
:10396000010F48BF42F480724FF0004C4CEA002037
:103970004CEA012102EB0302A0FB0113A2F50002B5
:10398000002918BF43F001035B0028BF4FEA33034F
:1039900042EB22425FEA132C4CEBC2502EBFBCEB31
:1039A000436FB2F57C0F70474FEA036CBCF1004FD8
:1039B00008BF20F00100B2F57C0F38BF70470BD56F
:1039C00082F0FF0212F5803FC8BF704700F1C0408F
:1039D000D8BF00F00040704700F5000C5FEA4C0CC7
:1039E00048BF7047B0F1C04000F073B890EA010FD3
:1039F0000CEAD11348BF42F48072624538BF634578
:103A000004D280EA010000F00040704710B500F0D9
:103A10001AF800BF8900013E00F007B800F009B8AD
:103A20005FEA410C5FEA1C6C08D080EA010000F0FC
:103A300050B85FEA400C5FEA1C6CF6D14FF00040D2
:103A4000A0F5800070470EF1020E2EF0030E5EF816
:103A5000044B244204D44FEA4102B2F17F4F11D803
:103A60004FEA4003B3F17F4F0CD80ED14FEAD07C20
:103A7000B2F17F4F0CEB4C0C0CF1020C08BF4CEB7D
:103A8000D17C04E04FF0080C01E04FEAD17C0CEB54
:103A90004C0324FA03F404F00704B4F1040C06D236
:103AA0000EEB840CBDE810404CF0010C6047DFE8E1
:103AB0000CF0070802024FF00040A0F5800010BD96
:103AC0000846420018BFD2F1807288BF00F0004063
:103AD00010BDFF2141EAD050C005704790EA010FA8
:103AE00048BF81F000413FF5F4AD421A04D882F09E
:103AF0000042A0EB020011444FEAD0524FF07F4C3D
:103B00001CEA410FA2EBD15318BF9CEA026F4AD0C6
:103B10004FF0004C4CEA00204CEA012121FA03FC52
:103B2000B0EB0C0C0FD412F0FE0F36D05FEA4C0055
:103B30001DD5001240EBC25038BF70471CF03F0F3C
:103B400018BF70470BE0A2F101025FEA1C2040EBB6
:103B5000C25038BF70471CF07F0F18BF7047C3F1C9
:103B60002003994014BF401E20F0010070478008D8
:103B70004FEA122308BF7047B0FA80FCA2EB0C0298
:103B8000CCF1280C60FA0CF093EA122F04BF00EB82
:103B9000C25070474FEAC3707047130A5FEADC10E7
:103BA00008BF7047F6E79CEA026F04D010EA5C0F8A
:103BB00008BF0020704710B5FFF745FF40DFF63E15
:103BC00081F000407047000000000000000000008D
:103BD00000000000000000000000000000000000E5
:103BE00000000000000000000000000000000000D5
:103BF00000000000000000000000000000000000C5
:103C00000000000000000000E007300C08106426EF
:103C100066660240024012481248366C2424C813DB
:103C2000300CE00700000000000000000000000071
:103C3000000000000000000000000000E007F00F9E
:103C4000F81FFC3F9E799E79FE7FFE7FEE77EE7730
:103C5000DC3B381CF00FE007000000000000000013
:103C60000000000000003C3C7E7EFE7FFFFFFFFF67
:103C7000FFFFFFFFFFFFFFFFFE7FFE7FFC3FFC3FDC
:103C8000F81FF00FF00FE007C003800100000000F4
:103C90000000000000000000000080008001C00162
:103CA000E003E007F00FF81FFC3FFE7FFFFFFE7F01
:103CB000FC3FF81FF00FE007E003C0018001800027
:103CC0000000000000000000000000000000C00331
:103CD000E007F00FF00FF00FF00FE007FC3FFE7F62
:103CE000FFFFFFFFFFFFFE7F9C3980018001C003C3
:103CF000C003C0030000000000000000000000003E
:103D00000000000180018003C007E00FF00FF81FE2
:103D1000FC3FFE7FFEFFFFFFFFFFFFFFFE7F9C39A2
:103D200080018001C003C00300000000000000000B
:103D30000000000000000000000000000000000083
:103D40000000000000000000000000000000000073
:103D50000000000000000000000000000000000063
:103D60000000000000000000000000000000000053
:103D70000000000000000000000000000000000043
:103D80000000000000000000000000000000000033
:103D90000000000000000000000000000000000023
:103DA0000000000000000000000000000000000013
:103DB0000000000000000000000000000000000003
:103DC00000000000000000000000000000000000F3
:103DD00000000000000000000000000000000000E3
:103DE00000000000000000000000000000000000D3
:103DF00000000000000000000000000000000000C3
:103E00000000000000000030007F007F007800CC40
:103E100000CEF007FC070E0E060C0318031803185B
:103E200003180318060C0E0EFC07F001000000003A
:103E300000000000000000000000C007F01F38383C
:103E400018300C600C600C600C601C601830783806
:103E5000F01FC00F00030003E01FE01F000300037A
:103E60000000000000000000000000000000000052
:103E70000000000000000000000000000000000042
:103E80000000000000000000000000000000000032
:103E90000000000000000000000000000000000022
:103EA000000000400070007E807FE047E04120403D
:103EB00020402040204020402040204020402078CA
:103EC000207C207E203E3C1C3E003F001F000E0058
:103ED00000000000000000000000000080018811C8
:103EE000DC3BF81F300C18181E781E781818300CA0
:103EF000F81FDC3B8811800100000000000000007A
:103F000000000000000000000000000000000000B1
:103F1000000002000E003E00FE00FE01FE07FE1F34
:103F2000FE7FFE1FFE07FE01FE003E000E000200A7
:103F30000000000000000000000000000000000081
:103F400000000000000000400070007C007F807FC7
:103F5000E07FF87FFE7FF87FE07F807F007F007C3E
:103F600000700040000000000000000000000000A1
:103F7000000080018001C003E007B00D80018001D6
:103F80008001800180018001800180018001800129
:103F9000800180018001B00DE007C0038001800135
:103FA000000000000000701C701C701C701C701C55
:103FB000701C701C701C701C701C701C701C701CA1
:103FC000701C00000000701C701C701C00000000C1
:103FD00000000000000000000000F81FFC1FFE1899
:103FE000FE18FE18FE18FE18FC18F818F018C01875
:103FF000C018C018C018C018C018C018C018C01801
:10400000C018C018C018C018000000000000C01F71
:10401000F01F7810380038007800F001E007F00F4A
:10402000301E383C38387838F019E00F800F001E09
:10403000003C00380038183CF81FE0070000000082
:104040000000000000000000000000000000FE7FF3
:10405000FE7FFE7FFE7FFE7F00000000000000006C
:104060000000000000000000000000000000000050
:104070000000000080018001C003E007B00D800156
:104080008001800180018001800180018001800128
:10409000800180018001B00DE007C0038001800134
:1040A0000000F00FF00F0000000080018001C0034D
:1040B000E007B00D80018001800180018001800156
:1040C00080018001800180018001800180018001E8
:1040D000800180018001800100000000000080015B
:1040E00080018001800180018001800180018001C8
:1040F00080018001800180018001800180018001B8
:104100008001B00DE007C0038001800100000000C5
:10411000000000000000000000000000000000009F
:104120000004000C0018FE7FFE7F0018000C000445
:10413000000000000000000000000000000000007F
:10414000000000000000000000000000000000006F
:1041500000000000200030001800FE7FFE7F1800E5
:1041600030002000000000000000000000000000FF
:10417000000000000000000000000000000000003F
:10418000000000000600060006000600060006000B
:10419000060006000600060006000600FE7FFE7F01
:1041A000000000000000000000000000000000000F
:1041B0000000000000000000000000002004300C9F
:1041C0001818FE7FFE7F1818300C20040000000035
:1041D00000000000000000000000000000000000DF
:1041E000000000000000000000000001000180034A
:1041F0008003C003C007E007E00FF00FF01FF81FB7
:10420000F81FFC3FFC3FFE7F0000000000000000A4
:104210000000000000000000000000000000FE7F21
:10422000FC3FFC3FF81FF81FF01FF00FE00FE00706
:10423000C007C003800380030001000100000000EC
:10424000000000000000000000000000000000006E
:10425000000000000000000000000000000000005E
:10426000000000000000000000000000000000004E
:1042700000000000000000000000000000008003BB
:104280008003800380038003800380038003800316
:10429000800380038003800380030000000080030C
:1042A0008003800300000000000000000000000008
:1042B000380E380E380E380E380E10041004000078
:1042C00000000000000000000000000000000000EE
:1042D00000000000000000000000000000000000DE
:1042E00000000000000080318031C018C018C018E4
:1042F000C018FC7FFC7F600C60063006FE3FFE3F6E
:1043000018031803180318038C018C010000000027
:1043100000000000000000030003C01FF03F7023F6
:104320003803380338037803F003E0038007001FE5
:10433000001F003B003B003B003B181BF81FE00F39
:1043400000030003000000000000000000003CC06B
:104350006660C330C318C318C30CC30666033C03AE
:104360008001C03CC06660C330C318C318C30CC30F
:104370000666033C00000000000000000000000092
:104380000000E003F007380E380E380E38067007CC
:10439000F001F800FCE0CEE1C7E387630767077E22
:1043A0000F3E1E3CFC7FF0F3000000000000000008
:1043B00000000000C001C001C001C001C0018000B8
:1043C000800000000000000000000000000000006D
:1043D00000000000000000000000000000000000DD
:1043E00000000000000000000018001E000F800305
:1043F000C001E000E000E00070007000700070009C
:104400007000700070007000E000E000E000C0018B
:104410008003000F001E0018000000000C003C008C
:104420007800E000C00180038003800300070007DC
:10443000000700070007000700070007800380034C
:104440008003C001E00078003C000C000000000088
:104450000000800380038003981B7C3E300C4002E8
:10446000E007700E381C200400000000000000006F
:10447000000000000000000000000000000000003C
:10448000000000000000000000000000000000002C
:10449000800180018001800180018001FE7FFE7F1C
:1044A0008001800180018001800180010000000006
:1044B00000000000000000000000000000000000FC
:1044C00000000000000000000000000000000000EC
:1044D0000000000000000000C003C003C003C003D0
:1044E000000380038001C000000000000000000005
:1044F00000000000000000000000000000000000BC
:104500000000F81FF81F000000000000000000007D
:10451000000000000000000000000000000000009B
:10452000000000000000000000000000000000008B
:10453000000000000000000000000000000000007B
:10454000C003C003C003C00300000000000000005F
:104550000000000000600030003000180018000C5F
:10456000000C000600060003000380018001C0006B
:10457000C0006000600030003000180018000C001F
:104580000C000600000000000000E003F007380EF9
:104590001C1C1C1C0E380E380E380E380E380E3807
:1045A0000E380E380E381C1C1C1C380EF007E003A9
:1045B00000000000000000000000000000000003F8
:1045C000E003FC038C0380038003800380038003EB
:1045D00080038003800380038003800380038003C3
:1045E000FC7FFC7F000000000000000000000000D5
:1045F0000000F003FC070C0E001C001C001C001C3B
:10460000000E000E00078003C001E00070003000C3
:1046100038001C00FC1FFC1F000000000000000010
:10462000000000000000F003F80F081E001C001C32
:10463000001C000C0006E003E007000F001E001C39
:10464000001C001C001E080FF807F8030000000003
:1046500000000000000000000000000E000F800FAE
:10466000800FC00EE00E600E300E180E180E0C0EED
:10467000060EFE7FFE7F000E000E000E000E000EE6
:104680000000000000000000000000000000F03FFB
:10469000F03FF03F30003000300030003000F003D9
:1046A000F00F001E003C003800380038003C101E9F
:1046B000F00FF00300000000000000000000000008
:1046C0000000801FE03FF0207000380038001C0020
:1046D0009C0FDC1F7C3C3C781C701C701C7038707C
:1046E00038387038F01FC0070000000000000000DC
:1046F000000000000000F83FF83FF83F00180018E5
:10470000000C000C00060002000380018001C000C4
:10471000C000600060007000300030000000000049
:1047200000000000000000000000C007F00F781E2D
:10473000381C381C381C780CF00FE003F00F381FC1
:10474000181E1C3C1C381C381C38381CF00FE007A5
:104750000000000000000000000000000000C00792
:10476000F01F381C38381C381C701C701C703C78CA
:10477000787CF077E073007000380038001C081E69
:10478000F80FF0030000000000000000000000002F
:10479000000000000000000000000000C003C00393
:1047A000C003C00300000000000000000000000083
:1047B000C003C003C003C0030000000000000000ED
:1047C00000000000000000000000000000000000E9
:1047D000C003C003C003C0030000000000000000CD
:1047E00000000000C003C003C003C0030003800337
:1047F0008001C00000000000000000000000000078
:104800000000000000400070003C000FC003F000FA
:104810003C003C00F000C003000F003C0070004072
:104820000000000000000000000000000000000088
:104830000000000000000000000000000000FE7FFB
:10484000FE7F000000000000FE7FFE7F00000000F1
:104850000000000000000000000000000000000058
:1048600000000000000000000000000002000E0038
:104870003C00F000C003000F003C003C000FC003F0
:10488000F0003C000E0002000000000000000000EC
:10489000000000000000F807FC1F0C3C0C3800383A
:1048A0000038001C001E000F80078003C001C001FB
:1048B000C00100000000C001C001C00100000000F4
:1048C00000000000000000000000C00FE01F703872
:1048D00018301C3E0C318E31C630C630C638C63852
:1048E000C63CC6348EF78CF31C003808F00FC007A6
:1048F00000000000000000000000000000000000B8
:1049000000000000C001C003E003600760077006FC
:10491000300E380E381C181CFC3FFC3F0E380E7051
:104920000E7007E000000000000000000000000022
:104930000000000000000000FC07FC0F1C1E1C1CF7
:104940001C1C1C0EFC07FC071C1E1C3C1C381C38C5
:104950001C381C3CFC1FFC0700000000000000008D
:10496000000000000000000000000000C01FF03F39
:1049700078303C001C000E000E000E000E000E00F1
:104980000E001C003C007820F03FC01F000000001B
:104990000000000000000000000000000000000017
:1049A000FC07FC0F1C3C1C381C781C701C701C7015
:1049B0001C701C701C701C381C381C1EFC0FFC0367
:1049C00000000000000000000000000000000000E7
:1049D00000000000F83FF83F380038003800380089
:1049E0003800F81FF81F3800380038003800380049
:1049F000F87FF87F000000000000000000000000C9
:104A00000000000000000000F87FF87F3800380048
:104A1000380038003800F83FF83F380038003800D8
:104A200038003800380038000000000000000000A6
:104A3000000000000000000000000000C01FF03F68
:104A400078303C001C000E000E000E000E3F0E3FA2
:104A50000E381C383C387838F03FC01F000000008A
:104A60000000000000000000000000000000000046
:104A70001C381C381C381C381C381C381C38FC3FAF
:104A8000FC3F1C381C381C381C381C381C381C389F
:104A90000000000000000000000000000000000016
:104AA00000000000FC1FFC1FC001C001C001C001CC
:104AB000C001C001C001C001C001C001C001C001EE
:104AC000FC1FFC1F000000000000000000000000B0
:104AD0000000000000000000F80FF80F000E000EAC
:104AE000000E000E000E000E000E000E000E000E56
:104AF000000E0407FC03FC010000000000000000A1
:104B00000000000000000000000000001C781C3CB9
:104B10001C1E1C0F1C079C03DC01FC00DC01DC03D9
:104B20009C071C0F1C1E1C3C1C781CF8000000007D
:104B30000000000000000000000000000000000075
:104B400038003800380038003800380038003800A5
:104B5000380038003800380038003800F83FF83F97
:104B60000000000000000000000000000000000045
:104B7000000000000E381E3C1E3C1E3C3636363609
:104B80003636663266336633C631C631C6310630D4
:104B900006300630000000000000000000000000A9
:104BA00000000000000000001C301C303C307C3055
:104BB0007C30FC30EC31CC31CC338C370C3F0C3EAC
:104BC0000C3E0C3C0C380C380000000000000000CB
:104BD000000000000000000000000000E007F00FEF
:104BE000381C1C381C380E700E700E700E700E7053
:104BF0000E701C381C38381CF00FE0070000000055
:104C000000000000000000000000000000000000A4
:104C1000F81FF83F38783870387038703878383C7A
:104C2000F81FF8073800380038003800380038001E
:104C30000000000000000000000000000000000074
:104C400000000000E007F00F381C1C381C380E7004
:104C50000E700E700E700E700E701C381C38381CE2
:104C6000F00FE007001E007800F000400000000098
:104C70000000000000000000FC07FC0F1C1E1C1CB4
:104C80001C1C1C1C1C0EFC07FC039C071C071C0F97
:104C90001C1E1C3C1C381C7800000000000000009A
:104CA000000000000000000000000000E00FF81FFE
:104CB0003C181C001C003C00F800F007C01F003E20
:104CC0000038003800380C1CFC1FF0070000000002
:104CD00000000000000000000000000000000000D4
:104CE000FF7FFF7FC001C001C001C001C001C00142
:104CF000C001C001C001C001C001C001C001C001AC
:104D000000000000000000000000000000000000A3
:104D1000000000001C701C701C701C701C701C704B
:104D20001C701C701C701C701C701C703C78383817
:104D3000F01FE00F00000000000000000000000075
:104D4000000000000000000007E00E700E701C70F4
:104D50001C383C383838381C701C700CE00EE00EE3
:104D6000E007C007C007800300000000000000004B
:104D700000000000000000000000000003C003C0AD
:104D800007C08661C663C663C663C6634E766C366B
:104D90006C366C362C3E3C3C3C1C3C1C000000003D
:104DA0000000000000000000000000000000000003
:104DB0001EE03C707838781CF00EE007C003C0039A
:104DC000C007E007600F301E183C1C380E7807F053
:104DD00000000000000000000000000000000000D3
:104DE0000000000007E00E701C301C18381C780E04
:104DF0007007E003E003C001C001C001C001C001B1
:104E0000C001C00100000000000000000000000020
:104E10000000000000000000FC3FFC3F0038001CC8
:104E2000000E000780038001C000E0007000380021
:104E30001C000E00FE3FFE3F0000000000000000CE
:104E400000000000C03FC03FC001C001C001C00160
:104E5000C001C001C001C001C001C001C001C0014A
:104E6000C001C001C001C001C001C001C001C0013A
:104E7000C03FC03F0000000006000C000C001800FE
:104E800018003000300060006000C000C0008001E9
:104E900080010003000300060006000C000C00184F
:104EA000001800300030006000000000FC03FC032C
:104EB00080038003800380038003800380038003DA
:104EC00080038003800380038003800380038003CA
:104ED0008003800380038003FC03FC0300000000C8
:104EE00000000001000180038003C003C006E0064B
:104EF000600C300C3018181818180C300C30066084
:104F000000000000000000000000000000000000A1
:104F10000000000000000000000000000000000091
:104F20000000000000000000000000000000000081
:104F3000000000000000000000000000FFFFFFFF75
:104F4000000000000000C001800300070000000016
:104F50000000000000000000000000000000000051
:104F60000000000000000000000000000000000041
:104F70000000000000000000000000000000000031
:104F80000000000000000000E007F80F181E001CE1
:104F9000001CE01FF01F381C1C1C1C1C1C1C3C1E91
:104FA000F87BF07800000000000000000000000026
:104FB0001C001C001C001C001C001C009C07DC1FAB
:104FC0007C1C3C381C381C381C381C381C381C38DD
:104FD0001C1C3C1EFC0FCC07000000000000000061
:104FE00000000000000000000000000000000000C1
:104FF000C01FF03F782038001C001C001C001C0063
:105000001C003C003800F820F03FC01F00000000EA
:1050100000000000000000000070007000700070D0
:1050200000700070C073F07F787C38701C701C704A
:105030001C701C701C701C703C78387CF077E0731E
:105040000000000000000000000000000000000060
:105050000000000000000000C007F00F781C383886
:105060001C381C38FC3FFC3F1C001C00380078201A
:10507000F03FC01F00000000000000000000000022
:1050800000FF80FFC003C001C001C001FC7FFC7FA6
:10509000C001C001C001C001C001C001C001C00108
:1050A000C001C001C001C0010000000000000000FC
:1050B00000000000000000000000000000000000F0
:1050C000C073F07F787C38701C701C701C701C7072
:1050D0001C701C703C78387CF077E07300700038EE
:1050E000183CF81FF00700001C001C001C001C00EE
:1050F0001C001C001C0FDC1F7C3C3C381C381C387E
:105100001C381C381C381C381C381C381C381C38FF
:105110000000000000000000000000008003800389
:105120008003000000000000FC03FC0380038003F8
:105130008003800380038003800380038003800357
:105140008003800300000000000000000000000059
:10515000000E000E000E000000000000F80FF80F17
:10516000000E000E000E000E000E000E000E000ECF
:10517000000E000E000E000E000E000E0407FC07CD
:10518000F8010000380038003800380038003800D6
:10519000383C381E380E380FB807B803F803B80388
:1051A000B807380F380E381E383C38780000000039
:1051B0000000000000000000F807F80700070007E3
:1051C00000070007000700070007000700070007A7
:1051D0000007000700070007000700070007000797
:1051E00000000000000000000000000000000000BF
:1051F0000000000000000000CE31EE79FE7F9E77B7
:105200009E738E738E738E738E738E738E738E7386
:105210008E738E730000000000000000000000008C
:105220000000000000000000000000001C0FDC1F58
:105230007C3C3C381C381C381C381C381C381C384A
:105240001C381C381C381C3800000000000000000E
:10525000000000000000000000000000000000004E
:10526000E003F80F3C1E1C1C0E380E380E380E38AA
:105270000E380E381C1C3C1EF80FE0030000000026
:10528000000000000000000000000000000000001E
:10529000000000009C07DC1F7C1C3C381C381C38BC
:1052A0001C381C381C381C381C1C3C1EFC0F9C076E
:1052B0001C001C001C001C001C0000000000000062
:1052C0000000000000000000E039F83F3C3E1C38C0
:1052D0000E380E380E380E380E380E381E3C1C3E76
:1052E000F83BF0380038003800380038003800004B
:1052F000000000000000000000000000703E703F51
:10530000F031F030700070007000700070007000BC
:1053100070007000700070000000000000000000CD
:10532000000000000000000000000000000000007D
:10533000E00FF01F781038003800F801F007801FE8
:10534000003C00380038183CF81FF007000000004F
:10535000000000000000000000000000000000004D
:10536000E000E000FC3FFC3FE000E000E000E00087
:10537000E000E000E000E000E000E001C03F803F2E
:10538000000000000000000000000000000000001D
:1053900000000000000000001C381C381C381C38BD
:1053A0001C381C381C381C381C381C381C3C3C3E33
:1053B000F83BF03800000000000000000000000092
:1053C0000000000000000000000000001E701C38FB
:1053D0001C383C383818381C701C700CE00EE00E7D
:1053E000E006C007C00780030000000000000000C6
:1053F00000000000000000000000000000000000AD
:1054000003C087C38743C663C66346626E666E2663
:105410006C362C363C3C3C3C3C1C181C000000000C
:10542000000000000000000000000000000000007C
:10543000000000001E303C18780C700EF006E003EF
:10544000C003C003E007700F300E381E1C3C0E78FE
:10545000000000000000000000000000000000004C
:1054600000000000000000001E701C301C383818BE
:10547000381C781C700EF00EE007E007C003C00374
:10548000C0018001C001C000E0007C003C000000C1
:10549000000000000000000000000000FC3FFC3F96
:1054A0000038001C000E00078003C001E0007000FF
:1054B00038001C00FC3FFC3F000000000000000022
:1054C00000000000001F801FC003C001C001C00118
:1054D0008003800380038003C001F800F800C0014E
:1054E0008003800380038003C001C001C001C003AA
:1054F000801F001F000000008001800180018001EA
:105500008001800180018001800180018001800193
:105510008001800180018001800180018001800183
:105520008001800180018001000000007C00FC00FF
:10553000E001C001C001C001E000E000E000E000C7
:10554000C001800F800FC001E000E000E000E0003B
:10555000C001C001C001E001FC007C0000000000AF
:10556000000000000000000000000000000000003B
:105570000000000000007860FC63C63F061E0000CB
:10558000000000000000000000000000000000001B
:10559000000000000000000000000000F80F0808F4
:1055A000080808080808080808080808080808087B
:1055B00008080808080808080808F80F0000000094
:1055C00000000000000000000000000000000000DB
:1055D000C01FF03F78303C001C000E000E000E0093
:1055E0000E000E000E001C003C007820F03FC01F93
:1055F00000020007000C000C800700000000000003
:1056000030063006000000001C381C381C381C38DE
:105610001C381C381C381C381C381C381C3C3C3EC0
:10562000F83BF0380000000000000000000000001F
:10563000000C00060003800100000000C007F00F0E
:10564000781C38381C381C38FC3FFC3F1C001C0000
:1056500038007820F03FC01F00000000000000006C
:1056600000000000C00160033006180C00000000BC
:10567000E007F80F181E001C001CE01FF01F381C6C
:105680001C1C1C1C1C1C3C1EF87BF078000000003D
:10569000000000000000000000000000600C600C32
:1056A00000000000E007F80F181E001C001CE01F9F
:1056B000F01F381C1C1C1C1C1C1C3C1EF87BF078AA
:1056C000000000000000000000000000300060004A
:1056D000C000800100000000E007F80F181E001C49
:1056E000001CE01FF01F381C1C1C1C1C1C1C3C1E3A
:1056F000F87BF07800000000000000000000C0010E
:10570000200220022002C00100000000E007F80F84
:10571000181E001C001CE01FF01F381C1C1C1C1C49
:105720001C1C3C1EF87BF07800000000000000000C
:105730000000000000000000000000000000000069
:10574000C01FF03F782038001C001C001C001C000B
:105750001C003C003800F820F03FC01F000180030F
:1057600000060006C0030000C00160033006180CEC
:1057700000000000C007F00F781C38381C381C38B7
:10578000FC3FFC3F1C001C0038007820F03FC01F8D
:105790000000000000000000000000000000000009
:1057A000600C600C00000000C007F00F781C383857
:1057B0001C381C38FC3FFC3F1C001C0038007820C3
:1057C000F03FC01F000000000000000000000000CB
:1057D00030006000C000800100000000C007F00F32
:1057E000781C38381C381C38FC3FFC3F1C001C005F
:1057F00038007820F03FC01F0000000000000000CB
:10580000000000000000000030063006000000002C
:10581000FC03FC0380038003800380038003800378
:105820008003800380038003800380030000000066
:1058300000000000000000008003C006600C30186B
:1058400000000000FC03FC0380038003800380034E
:105850008003800380038003800380038003800330
:105860000000000000000000000000006000C00018
:105870008001000300000000FC03FC0380038003A0
:105880008003800380038003800380038003800300
:105890008003800300000000000000000000300CC6
:1058A000300C000000000000C001C003E0036007EE
:1058B00060077006300E380E381C181CFC3FFC3F89
:1058C0000E380E700E7007E00000000000000000AF
:1058D0000000800340044004400480038003C007AC
:1058E000C007E006600E600E700C301C381C3838A3
:1058F000FC3FFC3F1C700E700E7007E000000000C3
:10590000000000000000000E0007800300000000FF
:10591000F83FF83F38003800380038003800F81FEA
:10592000F81F38003800380038003800F87FF87F5A
:105930000000000000000000000000000000000067
:105940000000000000000000F83CFC7F806780E35E
:1059500080E3F0FFFCFF9C038E038E038E039E8783
:10596000FCFF787C00000000000000000000000048
:105970000000000000000000803FC03FC007E007BB
:10598000600760077007303F383F18071C07FC07A7
:10599000FC070607067F037F0000000000000000F0
:1059A00000000000C00160033006180C0000000079
:1059B000E003F80F3C1E1C1C0E380E380E380E3853
:1059C0000E380E381C1C3C1EF80FE00300000000CF
:1059D000000000000000000000000000300630065B
:1059E00000000000E003F80F3C1E1C1C0E380E38AF
:1059F0000E380E380E380E381C1C3C1EF80FE00313
:105A00000000000000000000000000003000600006
:105A1000C000800100000000E003F80F3C1E1C1CC9
:105A20000E380E380E380E380E380E381C1C3C1E40
:105A3000F80FE0030000000000000000000000007C
:105A4000C00160033006180C000000001C381C3830
:105A50001C381C381C381C381C381C381C381C38A6
:105A60001C3C3C3EF83BF038000000000000000009
:105A70000000000030006000C00080010000000055
:105A80001C381C381C381C381C381C381C381C3876
:105A90001C381C381C3C3C3EF83BF0380000000031
:105AA000000000000000000000000000300630068A
:105AB000000000001E701C301C383818381C781C80
:105AC000700EF00EE007E007C003C003C0018001C4
:105AD000C001C000E0007C003C00300C300C000035
